:04011200020B0000DC
:1000F400758920758DF3758BF3758780D28E75980D
:0601040050D2ACD2AF2284
:10000300D3EF9400EE940040147D6E7C00ED1D70E0
:0D001300011CED4C70F7EF1F70E61E80E33E
:0100200022BD
:08010A007580FF1200F480FE75
:030023000200B226
:0900B200C0E0C0D075D000C00709
:1000BB00AF993098FDC298EF700EC280A28033F5D5
:1000CB00993099FDC299801ABF010FD280A280E4AA
:1000DB0033F5993099FDC29980087599833099FD54
:0200EB00C299B8
:0700ED00D007D0D0D0E032B3
:03000000020026D5
:0C002600787FE4F6D8FD75810C02006DB7
:1000320002010AE493A3F8E493A34003F68001F2D9
:1000420008DFF48029E493A3F85407240CC8C333CF
:10005200C4540F4420C8834004F456800146F6DF9E
:10006200E4800B0102040810204080900112E47E1B
:10007200019360BCA3FF543F30E509541FFEE49393
:10008200A360010ECF54C025E060A840B8E493A35A
:10009200FAE493A3F8E493A3C8C582C8CAC583CA85
:1000A200F0A3C8C582C8CAC583CADFE9DEE780BE3D
:0101160000E8
:00000001FF
